{
  "contractName": "Swap",
  "abi": [
    {
      "inputs": [
        {
          "internalType": "address",
          "name": "addr0",
          "type": "address"
        },
        {
          "internalType": "address",
          "name": "addr1",
          "type": "address"
        }
      ],
      "stateMutability": "nonpayable",
      "type": "constructor"
    },
    {
      "anonymous": false,
      "inputs": [
        {
          "indexed": true,
          "internalType": "address",
          "name": "previousOwner",
          "type": "address"
        },
        {
          "indexed": true,
          "internalType": "address",
          "name": "newOwner",
          "type": "address"
        }
      ],
      "name": "OwnershipTransferred",
      "type": "event"
    },
    {
      "inputs": [],
      "name": "owner",
      "outputs": [
        {
          "internalType": "address",
          "name": "",
          "type": "address"
        }
      ],
      "stateMutability": "view",
      "type": "function"
    },
    {
      "inputs": [],
      "name": "renounceOwnership",
      "outputs": [],
      "stateMutability": "nonpayable",
      "type": "function"
    },
    {
      "inputs": [],
      "name": "totalShares",
      "outputs": [
        {
          "internalType": "uint256",
          "name": "",
          "type": "uint256"
        }
      ],
      "stateMutability": "view",
      "type": "function"
    },
    {
      "inputs": [
        {
          "internalType": "address",
          "name": "newOwner",
          "type": "address"
        }
      ],
      "name": "transferOwnership",
      "outputs": [],
      "stateMutability": "nonpayable",
      "type": "function"
    },
    {
      "inputs": [
        {
          "internalType": "uint256",
          "name": "token0Amount",
          "type": "uint256"
        },
        {
          "internalType": "uint256",
          "name": "token1Amount",
          "type": "uint256"
        }
      ],
      "name": "init",
      "outputs": [],
      "stateMutability": "nonpayable",
      "type": "function"
    },
    {
      "inputs": [],
      "name": "getReserves",
      "outputs": [
        {
          "internalType": "uint256",
          "name": "",
          "type": "uint256"
        },
        {
          "internalType": "uint256",
          "name": "",
          "type": "uint256"
        }
      ],
      "stateMutability": "view",
      "type": "function"
    },
    {
      "inputs": [],
      "name": "getTokens",
      "outputs": [
        {
          "internalType": "address",
          "name": "",
          "type": "address"
        },
        {
          "internalType": "address",
          "name": "",
          "type": "address"
        }
      ],
      "stateMutability": "view",
      "type": "function"
    },
    {
      "inputs": [
        {
          "internalType": "address",
          "name": "LP",
          "type": "address"
        }
      ],
      "name": "getShares",
      "outputs": [
        {
          "internalType": "uint256",
          "name": "",
          "type": "uint256"
        }
      ],
      "stateMutability": "view",
      "type": "function"
    },
    {
      "inputs": [
        {
          "internalType": "uint256",
          "name": "token0Amount",
          "type": "uint256"
        }
      ],
      "name": "addLiquidity",
      "outputs": [],
      "stateMutability": "nonpayable",
      "type": "function"
    },
    {
      "inputs": [
        {
          "internalType": "uint256",
          "name": "withdrawShares",
          "type": "uint256"
        }
      ],
      "name": "removeLiquidity",
      "outputs": [],
      "stateMutability": "nonpayable",
      "type": "function"
    },
    {
      "inputs": [
        {
          "internalType": "uint256",
          "name": "token0Amount",
          "type": "uint256"
        }
      ],
      "name": "token0To1",
      "outputs": [],
      "stateMutability": "nonpayable",
      "type": "function"
    },
    {
      "inputs": [
        {
          "internalType": "uint256",
          "name": "token1Amount",
          "type": "uint256"
        }
      ],
      "name": "token1To0",
      "outputs": [],
      "stateMutability": "nonpayable",
      "type": "function"
    }
  ],
  "bytecode": "0x60806040523480156200001157600080fd5b5060405162001e6038038062001e608339818101604052810190620000379190620001c4565b620000576200004b620000e160201b60201c565b620000e960201b60201c565b81600160006101000a81548173ffffffffffffffffffffffffffffffffffffffff021916908373ffffffffffffffffffffffffffffffffffffffff16021790555080600260006101000a81548173ffffffffffffffffffffffffffffffffffffffff021916908373ffffffffffffffffffffffffffffffffffffffff16021790555050506200025e565b600033905090565b60008060009054906101000a900473ffffffffffffffffffffffffffffffffffffffff169050816000806101000a81548173ffffffffffffffffffffffffffffffffffffffff021916908373ffffffffffffffffffffffffffffffffffffffff1602179055508173ffffffffffffffffffffffffffffffffffffffff168173ffffffffffffffffffffffffffffffffffffffff167f8be0079c531659141344cd1fd0a4f28419497f9722a3daafe3b4186f6b6457e060405160405180910390a35050565b600081519050620001be8162000244565b92915050565b60008060408385031215620001de57620001dd6200023f565b5b6000620001ee85828601620001ad565b92505060206200020185828601620001ad565b9150509250929050565b600062000218826200021f565b9050919050565b600073ffffffffffffffffffffffffffffffffffffffff82169050919050565b600080fd5b6200024f816200020b565b81146200025b57600080fd5b50565b611bf2806200026e6000396000f3fe608060405234801561001057600080fd5b50600436106100b45760003560e01c80639c8f9f23116100715780639c8f9f2314610156578063a5843f0814610172578063aa6ca8081461018e578063ad3bd45c146101ad578063f04da65b146101c9578063f2fde38b146101f9576100b4565b80630902f1ac146100b957806326ef80c9146100d85780633a98ef39146100f457806351c6590a14610112578063715018a61461012e5780638da5cb5b14610138575b600080fd5b6100c1610215565b6040516100cf9291906117c6565b60405180910390f35b6100f260048036038101906100ed919061147a565b610226565b005b6100fc61043f565b60405161010991906117ab565b60405180910390f35b61012c6004803603810190610127919061147a565b610445565b005b6101366106ba565b005b610140610742565b60405161014d9190611627565b60405180910390f35b610170600480360381019061016b919061147a565b61076b565b005b61018c600480360381019061018791906114d4565b610bd7565b005b610196610edb565b6040516101a4929190611642565b60405180910390f35b6101c760048036038101906101c2919061147a565b610f2c565b005b6101e360048036038101906101de9190611420565b611145565b6040516101f091906117ab565b60405180910390f35b610213600480360381019061020e9190611420565b61118e565b005b600080600354600454915091509091565b60008060035460045491509150600080600160009054906101000a900473ffffffffffffffffffffffffffffffffffffffff16600260009054906101000a900473ffffffffffffffffffffffffffffffffffffffff1691509150600085905060006103e86103e5836102989190611887565b6102a29190611856565b9050600081876102b29190611800565b86886102be9190611887565b6102c89190611856565b866102d391906118e1565b90508473ffffffffffffffffffffffffffffffffffffffff166323b872dd3330866040518463ffffffff1660e01b81526004016103129392919061166b565b602060405180830381600087803b15801561032c57600080fd5b505af1158015610340573d6000803e3d6000fd5b505050506040513d601f19601f82011682018060405250810190610364919061144d565b61036d57600080fd5b8373ffffffffffffffffffffffffffffffffffffffff1663a9059cbb33836040518363ffffffff1660e01b81526004016103a89291906116a2565b602060405180830381600087803b1580156103c257600080fd5b505af11580156103d6573d6000803e3d6000fd5b505050506040513d601f19601f820116820180604052508101906103fa919061144d565b61040357600080fd5b82600360008282546104159190611800565b92505081905550806004600082825461042e91906118e1565b925050819055505050505050505050565b60065481565b60008060035460045491509150600080600160009054906101000a900473ffffffffffffffffffffffffffffffffffffffff16600260009054906101000a900473ffffffffffffffffffffffffffffffffffffffff169150915060008060008792508683876104b49190611887565b6104be9190611856565b915086836006546104cf9190611887565b6104d99190611856565b90508473ffffffffffffffffffffffffffffffffffffffff166323b872dd3330866040518463ffffffff1660e01b81526004016105189392919061166b565b602060405180830381600087803b15801561053257600080fd5b505af1158015610546573d6000803e3d6000fd5b505050506040513d601f19601f8201168201806040525081019061056a919061144d565b61057357600080fd5b8373ffffffffffffffffffffffffffffffffffffffff166323b872dd3330856040518463ffffffff1660e01b81526004016105b09392919061166b565b602060405180830381600087803b1580156105ca57600080fd5b505af11580156105de573d6000803e3d6000fd5b505050506040513d601f19601f82011682018060405250810190610602919061144d565b61060b57600080fd5b806006600082825461061d9190611800565b9250508190555082876106309190611800565b828761063c9190611800565b80975081985050508686600360006004600084919050558391905055505080600560003373ffffffffffffffffffffffffffffffffffffffff1673ffffffffffffffffffffffffffffffffffffffff16815260200190815260200160002060008282546106a99190611800565b925050819055505050505050505050565b6106c2611286565b73ffffffffffffffffffffffffffffffffffffffff166106e0610742565b73ffffffffffffffffffffffffffffffffffffffff1614610736576040517f08c379a000000000000000000000000000000000000000000000000000000000815260040161072d9061170b565b60405180910390fd5b610740600061128e565b565b60008060009054906101000a900473ffffffffffffffffffffffffffffffffffffffff16905090565b60008060035460045491509150600080600160009054906101000a900473ffffffffffffffffffffffffffffffffffffffff16600260009054906101000a900473ffffffffffffffffffffffffffffffffffffffff169150915060008086600560003373ffffffffffffffffffffffffffffffffffffffff1673ffffffffffffffffffffffffffffffffffffffff16815260200190815260200160002054101561084a576040517f08c379a00000000000000000000000000000000000000000000000000000000081526004016108419061178b565b60405180910390fd5b60065487876108599190611887565b6108639190611856565b915060065487866108749190611887565b61087e9190611856565b9050818473ffffffffffffffffffffffffffffffffffffffff166370a08231306040518263ffffffff1660e01b81526004016108ba9190611627565b60206040518083038186803b1580156108d257600080fd5b505afa1580156108e6573d6000803e3d6000fd5b505050506040513d601f19601f8201168201806040525081019061090a91906114a7565b101561094b576040517f08c379a00000000000000000000000000000000000000000000000000000000081526004016109429061174b565b60405180910390fd5b808373ffffffffffffffffffffffffffffffffffffffff166370a08231306040518263ffffffff1660e01b81526004016109859190611627565b60206040518083038186803b15801561099d57600080fd5b505afa1580156109b1573d6000803e3d6000fd5b505050506040513d601f19601f820116820180604052508101906109d591906114a7565b1015610a16576040517f08c379a0000000000000000000000000000000000000000000000000000000008152600401610a0d9061172b565b60405180910390fd5b8373ffffffffffffffffffffffffffffffffffffffff1663a9059cbb33846040518363ffffffff1660e01b8152600401610a519291906116a2565b602060405180830381600087803b158015610a6b57600080fd5b505af1158015610a7f573d6000803e3d6000fd5b505050506040513d601f19601f82011682018060405250810190610aa3919061144d565b610aac57600080fd5b8273ffffffffffffffffffffffffffffffffffffffff1663a9059cbb33836040518363ffffffff1660e01b8152600401610ae79291906116a2565b602060405180830381600087803b158015610b0157600080fd5b505af1158015610b15573d6000803e3d6000fd5b505050506040513d601f19601f82011682018060405250810190610b39919061144d565b610b4257600080fd5b8186610b4e91906118e1565b8186610b5a91906118e1565b80965081975050508585600360006004600084919050558391905055505086600560003373ffffffffffffffffffffffffffffffffffffffff1673ffffffffffffffffffffffffffffffffffffffff1681526020019081526020016000206000828254610bc791906118e1565b9250508190555050505050505050565b610bdf611286565b73ffffffffffffffffffffffffffffffffffffffff16610bfd610742565b73ffffffffffffffffffffffffffffffffffffffff1614610c53576040517f08c379a0000000000000000000000000000000000000000000000000000000008152600401610c4a9061170b565b60405180910390fd5b6000600354148015610c6757506000600454145b610ca6576040517f08c379a0000000000000000000000000000000000000000000000000000000008152600401610c9d9061176b565b60405180910390fd5b600082118015610cb65750600081115b610cf5576040517f08c379a0000000000000000000000000000000000000000000000000000000008152600401610cec906116eb565b60405180910390fd5b600160009054906101000a900473ffffffffffffffffffffffffffffffffffffffff1673ffffffffffffffffffffffffffffffffffffffff166323b872dd3330856040518463ffffffff1660e01b8152600401610d549392919061166b565b602060405180830381600087803b158015610d6e57600080fd5b505af1158015610d82573d6000803e3d6000fd5b505050506040513d601f19601f82011682018060405250810190610da6919061144d565b610daf57600080fd5b600260009054906101000a900473ffffffffffffffffffffffffffffffffffffffff1673ffffffffffffffffffffffffffffffffffffffff166323b872dd3330846040518463ffffffff1660e01b8152600401610e0e9392919061166b565b602060405180830381600087803b158015610e2857600080fd5b505af1158015610e3c573d6000803e3d6000fd5b505050506040513d601f19601f82011682018060405250810190610e60919061144d565b610e6957600080fd5b8160038190555080600481905550610e8b8183610e869190611887565b611352565b600681905550600654600560003373ffffffffffffffffffffffffffffffffffffffff1673ffffffffffffffffffffffffffffffffffffffff168152602001908152602001600020819055505050565b600080600160009054906101000a900473ffffffffffffffffffffffffffffffffffffffff16600260009054906101000a900473ffffffffffffffffffffffffffffffffffffffff16915091509091565b60008060035460045491509150600080600160009054906101000a900473ffffffffffffffffffffffffffffffffffffffff16600260009054906101000a900473ffffffffffffffffffffffffffffffffffffffff1691509150600085905060006103e86103e583610f9e9190611887565b610fa89190611856565b905060008186610fb89190611800565b8787610fc49190611887565b610fce9190611856565b87610fd991906118e1565b90508373ffffffffffffffffffffffffffffffffffffffff166323b872dd3330866040518463ffffffff1660e01b81526004016110189392919061166b565b602060405180830381600087803b15801561103257600080fd5b505af1158015611046573d6000803e3d6000fd5b505050506040513d601f19601f8201168201806040525081019061106a919061144d565b61107357600080fd5b8473ffffffffffffffffffffffffffffffffffffffff1663a9059cbb33836040518363ffffffff1660e01b81526004016110ae9291906116a2565b602060405180830381600087803b1580156110c857600080fd5b505af11580156110dc573d6000803e3d6000fd5b505050506040513d601f19601f82011682018060405250810190611100919061144d565b61110957600080fd5b876004600082825461111b9190611800565b92505081905550806003600082825461113491906118e1565b925050819055505050505050505050565b6000600560008373ffffffffffffffffffffffffffffffffffffffff1673ffffffffffffffffffffffffffffffffffffffff168152602001908152602001600020549050919050565b611196611286565b73ffffffffffffffffffffffffffffffffffffffff166111b4610742565b73ffffffffffffffffffffffffffffffffffffffff161461120a576040517f08c379a00000000000000000000000000000000000000000000000000000000081526004016112019061170b565b60405180910390fd5b600073ffffffffffffffffffffffffffffffffffffffff168173ffffffffffffffffffffffffffffffffffffffff16141561127a576040517f08c379a0000000000000000000000000000000000000000000000000000000008152600401611271906116cb565b60405180910390fd5b6112838161128e565b50565b600033905090565b60008060009054906101000a900473ffffffffffffffffffffffffffffffffffffffff169050816000806101000a81548173ffffffffffffffffffffffffffffffffffffffff021916908373ffffffffffffffffffffffffffffffffffffffff1602179055508173ffffffffffffffffffffffffffffffffffffffff168173ffffffffffffffffffffffffffffffffffffffff167f8be0079c531659141344cd1fd0a4f28419497f9722a3daafe3b4186f6b6457e060405160405180910390a35050565b600060038211156113b957819050600060016002846113719190611856565b61137b9190611800565b90505b818110156113b35780915060028182856113989190611856565b6113a29190611800565b6113ac9190611856565b905061137e565b506113c7565b600082146113c657600190505b5b919050565b6000813590506113db81611b77565b92915050565b6000815190506113f081611b8e565b92915050565b60008135905061140581611ba5565b92915050565b60008151905061141a81611ba5565b92915050565b600060208284031215611436576114356119bb565b5b6000611444848285016113cc565b91505092915050565b600060208284031215611463576114626119bb565b5b6000611471848285016113e1565b91505092915050565b6000602082840312156114905761148f6119bb565b5b600061149e848285016113f6565b91505092915050565b6000602082840312156114bd576114bc6119bb565b5b60006114cb8482850161140b565b91505092915050565b600080604083850312156114eb576114ea6119bb565b5b60006114f9858286016113f6565b925050602061150a858286016113f6565b9150509250929050565b61151d81611915565b82525050565b60006115306026836117ef565b915061153b826119c0565b604082019050919050565b6000611553601d836117ef565b915061155e82611a0f565b602082019050919050565b60006115766020836117ef565b915061158182611a38565b602082019050919050565b60006115996021836117ef565b91506115a482611a61565b604082019050919050565b60006115bc6021836117ef565b91506115c782611ab0565b604082019050919050565b60006115df601c836117ef565b91506115ea82611aff565b602082019050919050565b6000611602602b836117ef565b915061160d82611b28565b604082019050919050565b61162181611953565b82525050565b600060208201905061163c6000830184611514565b92915050565b60006040820190506116576000830185611514565b6116646020830184611514565b9392505050565b60006060820190506116806000830186611514565b61168d6020830185611514565b61169a6040830184611618565b949350505050565b60006040820190506116b76000830185611514565b6116c46020830184611618565b9392505050565b600060208201905081810360008301526116e481611523565b9050919050565b6000602082019050818103600083015261170481611546565b9050919050565b6000602082019050818103600083015261172481611569565b9050919050565b600060208201905081810360008301526117448161158c565b9050919050565b60006020820190508181036000830152611764816115af565b9050919050565b60006020820190508181036000830152611784816115d2565b9050919050565b600060208201905081810360008301526117a4816115f5565b9050919050565b60006020820190506117c06000830184611618565b92915050565b60006040820190506117db6000830185611618565b6117e86020830184611618565b9392505050565b600082825260208201905092915050565b600061180b82611953565b915061181683611953565b9250827fffffffffffffffffffffffffffffffffffffffffffffffffffffffffffffffff0382111561184b5761184a61195d565b5b828201905092915050565b600061186182611953565b915061186c83611953565b92508261187c5761187b61198c565b5b828204905092915050565b600061189282611953565b915061189d83611953565b9250817fffffffffffffffffffffffffffffffffffffffffffffffffffffffffffffffff04831182151516156118d6576118d561195d565b5b828202905092915050565b60006118ec82611953565b91506118f783611953565b92508282101561190a5761190961195d565b5b828203905092915050565b600061192082611933565b9050919050565b60008115159050919050565b600073ffffffffffffffffffffffffffffffffffffffff82169050919050565b6000819050919050565b7f4e487b7100000000000000000000000000000000000000000000000000000000600052601160045260246000fd5b7f4e487b7100000000000000000000000000000000000000000000000000000000600052601260045260246000fd5b600080fd5b7f4f776e61626c653a206e6577206f776e657220697320746865207a65726f206160008201527f6464726573730000000000000000000000000000000000000000000000000000602082015250565b7f696e6974202d20626f746820746f6b656e7320617265206e6565646564000000600082015250565b7f4f776e61626c653a2063616c6c6572206973206e6f7420746865206f776e6572600082015250565b7f5f746f6b656e3120646f6e2774206861766520656e6f7567682062616c616e6360008201527f6500000000000000000000000000000000000000000000000000000000000000602082015250565b7f5f746f6b656e3020646f6e2774206861766520656e6f7567682062616c616e6360008201527f6500000000000000000000000000000000000000000000000000000000000000602082015250565b7f696e6974202d20616c726561647920686173206c697175696469747900000000600082015250565b7f7368617265735b6d73672e73656e6465725d20646f6e2774206861766520656e60008201527f6f75676820736861726573000000000000000000000000000000000000000000602082015250565b611b8081611915565b8114611b8b57600080fd5b50565b611b9781611927565b8114611ba257600080fd5b50565b611bae81611953565b8114611bb957600080fd5b5056fea26469706673582212206d86d69a6c3a64eb2fa3950befab1695a7f6b33a3de021a0eba2981cd42f12e464736f6c63430008070033",
  "immutableReferences": {},
  "source": "// SPDX-License-Identifier: MIT\npragma solidity >=0.8.0 <0.9.0;\nimport \"@openzeppelin/contracts/access/Ownable.sol\";\nimport \"./interfaces/ISwap.sol\";\nimport \"./sAsset.sol\";\n\ncontract Swap is Ownable, ISwap {\n    address token0;\n    address token1;\n    uint256 reserve0;\n    uint256 reserve1;\n    mapping(address => uint256) shares;\n    uint256 public totalShares;\n\n    constructor(address addr0, address addr1) {\n        token0 = addr0;\n        token1 = addr1;\n    }\n\n    function init(uint256 token0Amount, uint256 token1Amount)\n        external\n        override\n        onlyOwner\n    {\n        require(reserve0 == 0 && reserve1 == 0, \"init - already has liquidity\");\n        require(\n            token0Amount > 0 && token1Amount > 0,\n            \"init - both tokens are needed\"\n        );\n\n        require(\n            sAsset(token0).transferFrom(msg.sender, address(this), token0Amount)\n        );\n        require(\n            sAsset(token1).transferFrom(msg.sender, address(this), token1Amount)\n        );\n        reserve0 = token0Amount;\n        reserve1 = token1Amount;\n        totalShares = sqrt(token0Amount * token1Amount);\n        shares[msg.sender] = totalShares;\n    }\n\n    // https://github.com/Uniswap/v2-core/blob/v1.0.1/contracts/libraries/Math.sol\n    function sqrt(uint256 y) internal pure returns (uint256 z) {\n        if (y > 3) {\n            z = y;\n            uint256 x = y / 2 + 1;\n            while (x < z) {\n                z = x;\n                x = (y / x + x) / 2;\n            }\n        } else if (y != 0) {\n            z = 1;\n        }\n    }\n\n    function getReserves() external view returns (uint256, uint256) {\n        return (reserve0, reserve1);\n    }\n\n    function getTokens() external view returns (address, address) {\n        return (token0, token1);\n    }\n\n    function getShares(address LP) external view returns (uint256) {\n        return shares[LP];\n    }\n\n    /* TODO: implement your functions here */\n\n    function addLiquidity(uint256 token0Amount) external override {\n        (uint256 _reserve0, uint256 _reserve1) = (reserve0, reserve1);\n        (address _token0, address _token1) = (token0, token1);\n        uint256 amount0;\n        uint256 amount1;\n        uint256 newShares;\n\n        amount0 = token0Amount;\n        amount1 = (_reserve1 * amount0) / _reserve0;\n        newShares = (totalShares * amount0) / _reserve0;\n\n        require(\n            sAsset(_token0).transferFrom(msg.sender, address(this), amount0)\n        );\n        // require(sAsset(_token0).mint(msg.sender, amount0));\n        require(\n            sAsset(_token1).transferFrom(msg.sender, address(this), amount1)\n        );\n        // require(sAsset(_token1).mint(msg.sender, amount1));\n\n        totalShares += newShares;\n        (_reserve0, _reserve1) = (_reserve0 + amount0, _reserve1 + amount1);\n        (reserve0, reserve1) = (_reserve0, _reserve1);\n        shares[msg.sender] += newShares;\n    }\n\n    function removeLiquidity(uint256 withdrawShares) external override {\n        (uint256 _reserve0, uint256 _reserve1) = (reserve0, reserve1);\n        (address _token0, address _token1) = (token0, token1);\n        uint256 amount0;\n        uint256 amount1;\n\n        require(\n            shares[msg.sender] >= withdrawShares,\n            \"shares[msg.sender] don't have enough shares\"\n        );\n\n        amount0 = (_reserve0 * withdrawShares) / totalShares;\n        amount1 = (_reserve1 * withdrawShares) / totalShares;\n\n        require(\n            sAsset(_token0).balanceOf(address(this)) >= amount0,\n            \"_token0 don't have enough balance\"\n        );\n        require(\n            sAsset(_token1).balanceOf(address(this)) >= amount1,\n            \"_token1 don't have enough balance\"\n        );\n\n        require(sAsset(_token0).transfer(msg.sender, amount0));\n        require(sAsset(_token1).transfer(msg.sender, amount1));\n\n        // require(sAsset(_token0).burn(msg.sender, amount0));\n        // require(sAsset(_token1).burn(msg.sender, amount1));\n\n        (_reserve0, _reserve1) = (_reserve0 - amount0, _reserve1 - amount1);\n        (reserve0, reserve1) = (_reserve0, _reserve1);\n        // uint256 newShares = (totalShares * amount0) / reserve0;\n        shares[msg.sender] -= withdrawShares;\n    }\n\n    function token0To1(uint256 token0Amount) external override {\n        (uint256 _reserve0, uint256 _reserve1) = (reserve0, reserve1);\n        (address _token0, address _token1) = (token0, token1);\n\n        uint256 token0_sent = token0Amount;\n        uint256 token0_to_exchange = (token0_sent * 997) / 1000;\n        uint256 token1_to_return = _reserve1 -\n            (_reserve0 * _reserve1) /\n            (_reserve0 + token0_to_exchange);\n\n        require(\n            sAsset(_token0).transferFrom(msg.sender, address(this), token0_sent)\n        );\n        require(sAsset(_token1).transfer(msg.sender, token1_to_return));\n\n        reserve0 += token0_sent;\n        reserve1 -= token1_to_return;\n    }\n\n    function token1To0(uint256 token1Amount) external override {\n        (uint256 _reserve0, uint256 _reserve1) = (reserve0, reserve1);\n        (address _token0, address _token1) = (token0, token1);\n\n        uint256 token1_sent = token1Amount;\n        uint256 token1_to_exchange = (token1_sent * 997) / 1000;\n        uint256 token0_to_return = _reserve0 -\n            (_reserve1 * _reserve0) /\n            (_reserve1 + token1_to_exchange);\n\n        require(\n            sAsset(_token1).transferFrom(msg.sender, address(this), token1_sent)\n        );\n        require(sAsset(_token0).transfer(msg.sender, token0_to_return));\n\n        reserve1 += token1Amount;\n        reserve0 -= token0_to_return;\n    }\n}\n",
  "sourcePath": "/Users/hanyang/Documents/ECE598/ece598pv-sp2022/FinalProject/Part3/contracts/Swap.sol",
  "compiler": {
    "name": "solc",
    "version": "0.8.7+commit.e28d00a7.Emscripten.clang"
  },
  "schemaVersion": "3.4.7",
  "updatedAt": "2022-05-01T19:48:12.586Z",
  "devdoc": {
    "kind": "dev",
    "methods": {
      "owner()": {
        "details": "Returns the address of the current owner."
      },
      "renounceOwnership()": {
        "details": "Leaves the contract without owner. It will not be possible to call `onlyOwner` functions anymore. Can only be called by the current owner. NOTE: Renouncing ownership will leave the contract without an owner, thereby removing any functionality that is only available to the owner."
      },
      "transferOwnership(address)": {
        "details": "Transfers ownership of the contract to a new account (`newOwner`). Can only be called by the current owner."
      }
    },
    "version": 1
  },
  "userdoc": {
    "kind": "user",
    "methods": {},
    "version": 1
  }
}